:020000040800F2
:1000000000000120394D0008C54B0008C94B00080D
:10001000CD4B0008D14B0008D54B00080000000074
:10002000000000000000000000000000D94B0008A4
:10003000DD4B000800000000E14B0008E54B000824
:10004000894D0008894D0008894D0008894D000838
:10005000894D0008894D0008894D0008894D000828
:10006000894D0008894D0008894D0008894D000818
:10007000894D0008894D0008894D0008894D000808
:10008000894D0008894D0008E94B0008894D00089A
:10009000894D0008894D0008894D0008894D0008E8
:1000A000054C0008214C00083D4C0008594C000844
:1000B000654C0008714C00087D4C0008894D000813
:1000C000894D0008894D0008894D0008894D0008B8
:1000D000894D0008894D0008894D0008894D0008A8
:1000E000894C0008894D0008894D0008B14C000872
:1000F000BD4C0008C94C0008D54C0008E14C000874
:10010000894D00080000000000000000894D000833
:10011000894D0008894D0008ED4C0008F94C000895
:10012000894D0008054D0008894D0008894D0008DB
:10013000894D0008114D000800000000000000007B
:10014000894D0008894D0008894D00080000000015
:10015000000000000000000000000000000000009F
:10016000894D0008894D0008894D0008894D000817
:10017000894D0008894D0008894D0008894D000807
:10018000894D0008894D00080000000000000000B3
:04019000894D00088D
:1001940010B5054C237833B9044B13B10448AFF3BD
:1001A40000800123237010BD8004002000000000A3
:1001B4004850000808B5034B1BB103490348AFF38B
:1001C400008008BD0000000084040020485000089E
:1001D40081F0004102E000BF83F0004330B54FEAF4
:1001E40041044FEA430594EA050F08BF90EA020F61
:1001F4001FBF54EA000C55EA020C7FEA645C7FEAF4
:10020400655C00F0E2804FEA5454D4EB5555B8BF16
:100214006D420CDD2C4480EA020281EA030382EA87
:10022400000083EA010180EA020281EA0303362D19
:1002340088BF30BD11F0004F4FEA01314FF4801CEC
:100244004CEA113102D0404261EB410113F0004FFE
:100254004FEA03334CEA133302D0524263EB4303B5
:1002640094EA050F00F0A780A4F10104D5F1200E53
:100274000DDB02FA0EFC22FA05F2801841F10001AE
:1002840003FA0EF2801843FA05F359410EE0A5F182
:1002940020050EF1200E012A03FA0EFC28BF4CF0B3
:1002A400020C43FA05F3C01851EBE37101F0004569
:1002B40007D54FF0000EDCF1000C7EEB00006EEB76
:1002C4000101B1F5801F1BD3B1F5001F0CD3490800
:1002D4005FEA30004FEA3C0C04F101044FEA445257
:1002E40012F5800F80F09A80BCF1004F08BF5FEADE
:1002F400500C50F1000041EB045141EA050130BDBE
:100304005FEA4C0C404141EB010111F4801FA4F160
:100314000104E9D191F0000F04BF01460020B1FAB5
:1003240081F308BF2033A3F10B03B3F120020CDAED
:100334000C3208DD02F1140CC2F10C0201FA0CF0CB
:1003440021FA02F10CE002F11402D8BFC2F1200C30
:1003540001FA02F120FA0CFCDCBF41EA0C019040E6
:10036400E41AA2BF01EB0451294330BD6FEA04042F
:100374001F3C1CDA0C340EDC04F11404C4F120021A
:1003840020FA04F001FA02F340EA030021FA04F32C
:1003940045EA030130BDC4F10C04C4F1200220FA83
:1003A40002F001FA04F340EA0300294630BD21FAC1
:1003B40004F0294630BD94F0000F83F4801306BF87
:1003C40081F480110134013D4EE77FEA645C18BF7B
:1003D4007FEA655C29D094EA050F08BF90EA020F12
:1003E40005D054EA000C04BF1946104630BD91EA0A
:1003F400030F1EBF0021002030BD5FEA545C05D10D
:100404004000494128BF41F0004130BD14F580044B
:100414003CBF01F5801130BD01F0004545F0FE41BF
:1004240041F470014FF0000030BD7FEA645C1ABFF4
:10043400194610467FEA655C1CBF0B46024650EA2B
:10044400013406BF52EA033591EA030F41F4002157
:1004540030BD00BF90F0000F04BF0021704730B5DD
:100464004FF4806404F132044FF000054FF00001B2
:1004740050E700BF90F0000F04BF0021704730B573
:100484004FF4806404F1320410F0004548BF404248
:100494004FF000013EE700BF42004FEAE2014FEA9D
:1004A40031014FEA02701FBF12F07F4393F07F4F78
:1004B40081F06051704732F07F4208BF704793F07B
:1004C4007F4F04BF41F40021704730B54FF460748E
:1004D40001F0004521F000411CE700BF50EA010291
:1004E40008BF704730B54FF000050AE050EA01023A
:1004F40008BF704730B511F0004502D5404261EBAA
:1005040041014FF4806404F132045FEA915C3FF4EA
:10051400D8AE4FF003025FEADC0C18BF03325FEA87
:10052400DC0C18BF033202EBDC02C2F1200300FA38
:1005340003FC20FA02F001FA03FE40EA0E0021FA5D
:1005440002F11444BDE600BF70B54FF0FF0C4CF44B
:10055400E06C1CEA11541DBF1CEA135594EA0C0FFD
:1005640095EA0C0F00F0DEF82C4481EA030621EA38
:100574004C5123EA4C5350EA013518BF52EA033573
:1005840041F4801143F4801338D0A0FB02CE4FF025
:100594000005E1FB02E506F00042E0FB03E54FF055
:1005A4000006E1FB03569CF0000F18BF4EF0010E4D
:1005B400A4F1FF04B6F5007F64F5407404D25FEA49
:1005C4004E0E6D4146EB060642EAC62141EA5551FC
:1005D4004FEAC52040EA5E504FEACE2EB4F1FD0C3E
:1005E40088BFBCF5E06F1ED8BEF1004F08BF5FEABC
:1005F400500E50F1000041EB045170BD06F000466E
:1006040046EA010140EA020081EA0301B4EB5C041A
:10061400C2BFD4EB0C0541EA045170BD41F4801112
:100624004FF0000E013C00F3AB8014F1360FDEBF37
:10063400002001F0004170BDC4F10004203C35DA13
:100644000C341BDC04F11404C4F1200500FA05F396
:1006540020FA04F001FA05F240EA020001F0004237
:1006640021F0004110EBD37021FA04F642EB0601AD
:100674005EEA430E08BF20EAD37070BDC4F10C04D7
:10068400C4F1200500FA04F320FA05F001FA04F29B
:1006940040EA020001F0004110EBD37041F1000187
:1006A4005EEA430E08BF20EAD37070BDC4F1200592
:1006B40000FA05F24EEA020E20FA04F301FA05F2FA
:1006C40043EA020321FA04F001F0004121FA04F2A2
:1006D40020EA020000EBD3705EEA430E08BF20EA72
:1006E400D37070BD94F0000F0FD101F000464000AC
:1006F40041EB010111F4801F08BF013CF7D041EA2E
:10070400060195F0000F18BF704703F00046520031
:1007140043EB030313F4801F08BF013DF7D043EA02
:100724000603704794EA0C0F0CEA135518BF95EAB8
:100734000C0F0CD050EA410618BF52EA4306D1D13F
:1007440081EA030101F000414FF0000070BD50EA5E
:10075400410606BF1046194652EA430619D094EAE8
:100764000C0F02D150EA013613D195EA0C0F05D1D2
:1007740052EA03361CBF104619460AD181EA030126
:1007840001F0004141F0FE4141F470014FF00000DE
:1007940070BD41F0FE4141F4780170BD70B54FF079
:1007A400FF0C4CF4E06C1CEA11541DBF1CEA1355F9
:1007B40094EA0C0F95EA0C0F00F0A7F8A4EB0504DB
:1007C40081EA030E52EA03354FEA013100F08880D2
:1007D4004FEA03334FF0805545EA131343EA12639B
:1007E4004FEA022245EA111545EA10654FEA002650
:1007F4000EF000419D4208BF964244F1FD0404F509
:10080400407402D25B084FEA3202B61A65EB030564
:100814005B084FEA32024FF480104FF4002CB6EB21
:10082400020E75EB030E22BFB61A754640EA0C00A1
:100834005B084FEA3202B6EB020E75EB030E22BFE1
:10084400B61A754640EA5C005B084FEA3202B6EB22
:10085400020E75EB030E22BFB61A754640EA9C00E1
:100864005B084FEA3202B6EB020E75EB030E22BFB1
:10087400B61A754640EADC0055EA060E18D04FEA6F
:10088400051545EA16754FEA06164FEAC30343EA0F
:1008940052734FEAC2025FEA1C1CC0D111F4801FDC
:1008A4000BD141EA00014FF000004FF0004CB6E7D5
:1008B40011F4801F04BF01430020B4F1FD0C88BF74
:1008C400BCF5E06F3FF6AFAEB5EB030C04BFB6EB7F
:1008D400020C5FEA500C50F1000041EB045170BD72
:1008E4000EF0004E4EEA113114EB5C04C2BFD4EB9F
:1008F4000C0541EA045170BD41F480114FF0000E23
:10090400013C90E645EA060E8DE60CEA135594EA9E
:100914000C0F08BF95EA0C0F3FF43BAF94EA0C0FA1
:100924000AD150EA01347FF434AF95EA0C0F7FF416
:1009340025AF104619462CE795EA0C0F06D152EA6A
:1009440003353FF4FDAE1046194622E750EA41064E
:1009540018BF52EA43067FF4C5AE50EA41047FF45F
:100964000DAF52EA43057FF4EBAE12E74FEA4102C2
:10097400B2F1E04324BFB3F5001CDCF1FE5C0DD9F9
:1009840001F0004C4FEAC0024CEA5070B2F1004F43
:1009940040EB830008BF20F00100704711F0804F46
:1009A40021D113F13872BCBF01F00040704741F40B
:1009B40080114FEA5252C2F11802C2F1200C10FA0F
:1009C4000CF320FA02F018BF40F001004FEAC123F3
:1009D4004FEAD32303FA0CFC40EA0C0023FA02F397
:1009E4004FEA4303CCE77FEA625307D150EA01336D
:1009F4001EBF4FF0FE4040F44000704701F000403D
:100A040040F0FE4040F40000704700BF70B50E4B4C
:100A14000E4D1B682A7806464FF47A70B0FBF2F04C
:100A2400B3FBF0F000F03CFE08B90F2E01D9012011
:100A340070BD0446024631464FF0FF3000F0ECFD35
:100A44006E60204670BD00BF4400002000000020FE
:100A5400074A08B5136843F010031360032000F03D
:100A6400C9FD0020FFF7D2FF03F0A8FD002008BD58
:100A740000200240034A044B11681B780B441360A6
:100A8400704700BF1805002000000020014B1868C3
:100A9400704700BF18050020704700BF704700BFB3
:100AA400704700BF70B582B000230193002800F0A6
:100AB4009D80036C13F01003044618D1056C002DBF
:100AC40000F0978001688A68D20040F183808A68C8
:100AD40096007FD4226CD00640F19980236C23F0D9
:100AE400120343F010032364012002B070BD036CB1
:100AF400DD06F3D401688B6813F00403EED1226C95
:100B040022F4817242F00202B1F1A04F226400F09B
:100B1400EA80A54A91427ED0A448814200F0E68052
:100B2400A34A914200F0E3808A6802F00302012A9A
:100B340000F034819F4DAA68606822F44032024379
:100B4400AA60D4E90252666B607E2A4394F820506E
:100B5400012E18BF4FF4805342EA4032012D43EA7C
:100B6400020300F09680A26A012A0DD08F488142C8
:100B740000F0A48000F58070814200F09F8022F490
:100B84008052E06A034313438A6812F00C0F0CD1BD
:100B9400C86894F83020257E20F48040520020F06C
:100BA400020042EA8532C8601343CD68824A206954
:100BB4002A4013430128CB6073D00B6B23F00F033F
:100BC4000B6300206064236C23F0030343F00103F0
:100BD40023648AE7236C23F0120343F01003236495
:100BE400636C43F001036364236C77E7012002B074
:100BF40070BD4564C0E9125580F83C5003F0F6FC22
:100C040021688A6812F0805216D02B465BE7002BCD
:100C14007FF464AF6FE7694D4FF0A0408A6802F03B
:100C24000302012A45D0826802F00302012A82D11C
:100C34000268D20785D47EE7886800F003000128A3
:100C440062D0236CDD0673D4226C5D4B5D481B6857
:100C540022F4885222F0020242F0020222648A68DC
:100C640022F040528A60A0FB03239B0C8A6803EBAA
:100C740083035B0042F080528A600193019B002B46
:100C84003FF421AF019B013B0193019B002BF9D160
:100C940019E770BB626A013A43EA424343F4803382
:100CA40061E70A6BE36922F00F02013B13430B6314
:100CB40087E70A68D6073FF544AFB4E7B2F5307F5B
:100CC40038D0B2F5807F51D0B2F5E07F51D0B2F583
:100CD4008A5F51D0B2F5845F51D0B2F5865F08BF08
:100CE4004FF4C0724DE73048344D97E73048314DEA
:100CF40094E7226C22F0220242F020022264626C09
:100D040042F0010262642EE70B6813F0010328D05D
:100D14008B6803F00D03012B0FD0236C43F01003F9
:100D24002364636C43F001036364226C0346CAE6E4
:100D34001346C8E64FF4E07223E78B68032243F0BE
:100D440002038B600A60FFF7A1FE054604E0FFF78B
:100D54009DFE401B022815D821688B6813F00103FF
:100D6400F5D1226CD0063FF5AEAE6DE74FF430728C
:100D740007E74FF4807204E74FF4707201E74FF411
:100D8400A072FEE6236C216843F010032364636CB5
:100D940043F001036364236C012394E60A68D207D9
:100DA4003FF5CFAEC6E600BF00010050000400507E
:100DB400000500500007005007C0F0FF000300507A
:100DC4004400002083DE1B43704700BF704700BF10
:100DD400704700BF704700BF03681A68520710B518
:100DE40004467ED55A6850077BD5226CD00603D4BE
:100DF400226C42F400722264B3F1A04F00F05981D6
:100E0400A14A934200F07D81A04A9168C80640F04F
:100E14002881D968DA6812F4406F17D1890415D48F
:100E24001A68120712D59A68500700F18A815A6825
:100E340022F00C025A60236C23F480732364236C25
:100E4400D90403D4236C43F0010323642046FFF741
:100E540023FE23680C221A601A6892064BD55A683E
:100E6400900648D5226CB3F1A04F42F4005222649C
:100E740000F01281844A934200F02E81834A9168E3
:100E8400C90640F0DC80D968DA6C12F0C00F0AD0D1
:100E9400880100F19B80DA6812F4406F40F096807C
:100EA4008A0400F193801A68500640F18F80B3F1F0
:100EB400A04F6BD0744A934200F04C81734A9168FE
:100EC400C8066DD0916801F01F01062968D09268A8
:100ED40002F01F02072A63D06D4A934260D0D268A1
:100EE4005FE01A681107B7D55A6812073FF57DAF5E
:100EF4001A689206B3D41A68510620D41A681106E7
:100F040003D55A68120600F183801A68D00503D508
:100F14005A68D10500F187801A68920502D55A688B
:100F2400900569D41A68D10602D55A68D2060AD443
:100F34001A68520502D55A6850054ED410BD5A6835
:100F44005206DBD58EE7626B012A10D0B3F1A04FB5
:100F540000F0EC804C484D4A4E49834208BF0A4693
:100F64009168C80640F0B280DA68D1070BD5236CCB
:100F740043F480632364636C43F002036364204698
:100F8400FFF78EFD236810221A60D1E7414A916869
:100F9400C90605D0916801F01F01062900D09268A6
:100FA400DA68910212D49A68120700F1C1805A6873
:100FB40022F060025A60236C23F480532364236C70
:100FC400D80503D4236C43F0010323642046FFF7C0
:100FD400FBFE236860221A6090E7226C42F4804290
:100FE4002264626C4FF4806142F00802626420461D
:100FF4001960FFF7EBFE10BD236C43F480232364D8
:101004002046FFF7E7FE23684FF400721A6089E771
:10101400236C43F4803323642046FFF73FFD2368A9
:1010240080221A6071E7236C43F400332364204662
:10103400FFF7CEFE23684FF480721A606CE7916864
:1010440001F01F0105293FF41EAF926802F01F0250
:10105400092A3FF418AF0E4A93423FF414AFD16803
:1010640012E7916801F01F0105293FF4D2AE92689E
:1010740002F01F02092A3FF4CCAE054A93423FF422
:10108400C8AED168C6E600BF00010050000700509A
:101094000004005000030050394A9168C8063FF428
:1010A400F2AE916801F01F0105293FF4ECAE92689D
:1010B400E9E6334A9168C9063FF4ABAE916801F0A2
:1010C4001F0105293FF4A5AE9268A2E6926812F4C6
:1010D400404F3FF458AF4AE702F500729168C806E2
:1010E4003FF4D1AE916801F01F0105293FF4CBAE66
:1010F400926802F01F02092A3FF4C5AE4FF0A042E5
:10110400ADE702F500729168C9063FF482AE9168BA
:1011140001F01F0105293FF47CAE926802F01F0222
:10112400092A3FF476AE4FF0A042AAE7144A17E723
:10113400236C43F010032364636C43F00103636482
:1011440044E7236C43F010032364636C43F001030E
:1011540063647BE602F500729168C9063FF420AF30
:10116400916801F01F0106293FF41AAF926802F05A
:101174001F02072A3FF414AF4FF0A042AFE600BFAE
:1011840000030050F0B4024682B092F83C300020D4
:10119400012B019000F0DE801368CC689D6801206B
:1011A4006D0782F83C0037D4D1E9005606EB4600BF
:1011B400042E4FEA400000F2A3801E6B1F278740D5
:1011C40026EA070605FA00F030431863986810F021
:1011D4000C0F4FD1092D05EB4506886800F29F805E
:1011E4005F694FF0070C0CFA06FCB04027EA0C06C6
:1011F40030435861D1E90467D868C0F3C1004000A6
:10120400013E07FA00F0AF06032E0FD8DFE816F010
:10121400FD00F200E700DC00136C43F020031364CC
:10122400002382F83C3002B0F0BC7047186E00F026
:10123400F840B84203D1186E20F000401866586E8A
:1012440000F0F840B84203D1586E20F000405866D0
:10125400986E00F0F840B84203D1986E20F0004038
:101264009866D86E00F0F840B84203D1D86E20F0EA
:101274000040D866986800F0030001286ED0012071
:10128400012C00FA05F06DD0D3F8B01021EA00006B
:10129400C3F8B000B3F1A04F7DD0874C874988488C
:1012A400A34208BF0146102D71D0112D4ED0122D2E
:1012B40024D18868400221D4B3F1A04F00F0E48027
:1012C4007D48834200F0EC807E4CA34200F0A8806D
:1012D40000F58060834200F0A480986800F0030069
:1012E400012800F0E480102D08D0112D00F0CE80EC
:1012F400122D03D18B6843F480038B6000208FE7A9
:10130400092E18D90E2E54D83C389E6B1F278740BF
:1013140026EA070605FA00F03043986356E71E3EB6
:101324009F694FF0070C0CFA06FCB04027EA0C0644
:10133400304398615EE71E385E6B1F27874026EABC
:10134400070605FA00F0304358633FE78868C40194
:10135400B2D5D3E7022002B0F0BC70471868C707C3
:101364008DD5CBE7D3F8B0408E682043092DC3F860
:10137400B00012D905EB45011B39986907248C404C
:1013840020EA040006FA01F10143996182E78868C2
:10139400060291D5B2E74A4985E7681C00EB400094
:1013A400596907248440864021EA04013143596184
:1013B40070E75A38DE6B1F27874026EA070605FACE
:1013C40000F03043D86301E7D3F86CC03E4E0CEA1A
:1013D4000606374347F000473843D8664AE7D3F850
:1013E40068C0394E0CEA0606374347F000473843D5
:1013F40098663FE7D3F864C0334E0CEA06063743D9
:1014040047F000473843586634E7D3F860C02E4E9F
:101414000CEA0606374347F000473843186629E7C5
:101424002A4C986800F00300012824D0A06800F03A
:101434000300012837D0102D7FF457AFB3F1A04F2C
:101444007FF45CAF224B234C1B688868A4FB0343E6
:101454009B0C03EB83035B0040F400008860019362
:10146400019B002B3FF44AAF019B013B0193019B7D
:10147400002BF9D142E71868C607D7D5136C43F09F
:10148400200313640120CBE60B4CCAE7B3F1A04F51
:101494007FF434AF8B6843F080738B600020BFE629
:1014A4004FF0A044BDE72068C007E7D4C3E718683D
:1014B400C707E3D417E700BF00010050000700503E
:1014C400000300500004005000F0FF8300050050AA
:1014D4004400002083DE1B430268B2F1A04F0346A0
:1014E400F0B440480DD0824209D000F540708242E9
:1014F40048D03D4CA24204D00120F0BC70474FF0CC
:10150400A04093F83C40012C41D094680125640725
:1015140083F83C5009D51A6C42F020021A64012069
:10152400002283F83C20F0BC704784686707F2D43B
:10153400B2F1A04F54D02B4E2C4C2D4DB24208BFCB
:101544002C460D6835B3A76893F830C04E6827F46D
:10155400604746EA4C363E43A660966806F00306AA
:10156400012E31D0826802F00302012A30D0A26831
:10157400896822F471620D4322F00F021543A560BD
:101584000020CDE793F83C401748012CBDD1022040
:10159400F0BC7047A16821F46041A160916801F03A
:1015A400030101290CD0826802F00302012A13D03E
:1015B400A26822F4716222F00F02A2600020AFE759
:1015C4001268D107DCD4EEE71268D607CAD5D7E78C
:1015D4000268D007D4D4CAE70268D207D0D4E7E7B8
:1015E400034CAEE700010050000500500007005016
:1015F40000030050074AD3684FF6FF010B40000276
:1016040043F0BF6300F4E06043F400330343D3606A
:10161400704700BF00ED00E0184BDB68C3F3022302
:1016240030B4C3F10705042D03F1040428BF0425D5
:10163400062C19D9033B4FF0FF349C4022EA0404E2
:101644004FF0FF32AA4021EA020101FA03F22243D9
:1016540012010028D2B20ADB00F1604000F56140BB
:1016640080F8002330BC704700242346E8E7044B8D
:1016740000F00F0003441A7630BC704700ED00E020
:10168400FCEC00E0002807DB00F01F010123400907
:10169400024A8B4042F82030704700BF00E100E06E
:1016A4000138B0F1807F0ED2084B10B4084C58605A
:1016B400F02084F823000022072110469A60196064
:1016C4005DF8044B70470120704700BF10E000E054
:1016D40000ED00E0002836D030B4D0E90135D0E97F
:1016E400034102462B432343D2E9054500680B43DB
:1016F40023430168D4692B43234321F47F51134CC2
:1017040021F030010B43A042036012D9104B114960
:10171400114C0344A1FB03131B099B00002001216E
:10172400C2E90F43906382F8200082F8211030BC94
:1017340070470A4B07490344A1FB03131B09A4F296
:1017440007449B00EAE70120704700BF07040240FA
:10175400F8FBFDBFCDCCCCCC00040240F8FFFDBFAC
:1017640070B4D0E90F5204232968046893400B42F3
:1017740026680AD016F0040F07D02268920637D5DF
:10178400C26A6B60CAB170BC1047022393400B421B
:1017940015D016F0020F12D02268920606D42268E1
:1017A400012122F00A02226080F82110826A6B6013
:1017B400002380F82030002AE5D170BC704708234C
:1017C40093400B42F9D03307F7D52368016B23F01C
:1017D4000E032360012303FA02F200246A60836388
:1017E40080F8213080F820400029E6D070BC0847FA
:1017F400226822F004022260C2E700BFD1F800C0D0
:10180400BCF1000F00F0D0802DE9F04FDFF8CCE1FF
:1018140083B0884600254FF0010909FA05F212EA5F
:101824000C0677D0D8F8041021F0100ABAF1020F90
:1018340078D06F000323D0F800B0BB40DB4301F045
:10184400030403EA0B0BBC400AF1FF3A44EA0B041D
:10185400BAF1010F046040F28680C468D8F8082009
:101864002340BA401A43CF00C26053D5544A936907
:1018740043F001039361936925F0030404F1804468
:1018840003F0010304F58034019305F00302019B86
:10189400A76892000F239340B0F1904F27EA030307
:1018A40016D0484FB84276D0474FB8426ED0474F13
:1018B400B8427AD0464FB8427CD0464FB8426ED038
:1018C400454FB8420CBF0627072707FA02F2134315
:1018D400A360DEF80030F243CC0354BF134033431B
:1018E400CEF80030DEF804308F0354BF1340334386
:1018F400CEF80430DEF80830CC0254BF1340334332
:10190400CEF80830DEF80C30890254BF134033435C
:10191400CEF80C3001353CFA05F37FF47EAF03B00A
:10192400BDE8F08FEF0800EB870705F007043B6A7A
:10193400A4004FF00F0B0BFA04FB23EA0B0AD8F8B0
:101944001030A34043EA0A033B626F000323D0F83C
:1019540000A0BB40DB4301F0030403EA0A0ABC40D5
:1019640044EA0A040460846803EA040AD8F80C40D0
:10197400BC4044EA0A048460D0F804A0C1F3001413
:101984002AEA0202AC401443446066E7022707FADD
:1019940002F213439CE709FA02F2134398E705277E
:1019A40007FA02F2134393E77047032707FA02F298
:1019B40013438DE7042707FA02F2134388E700BFB5
:1019C400001002400004004800080048000C0048D1
:1019D40000100048001400480018004800040140AA
:1019E4000AB9816270478161704700BF43690B4245
:1019F40018BF090481617047044A5169014200D14A
:101A0400704708B5506102F0CDFD08BD00040140E7
:101A140000284ED090F8413070B503F0FF02044620
:101A2400002B41D02422211D84F84120236826C99B
:101A3400186821F0706120F001001860196199683C
:101A4400012D21F4004199602AD042F40442022D70
:101A54009A6004BF4FF400625A605968A569D4E9DA
:101A6400042641F0007141F4004159603243D868C2
:101A7400E16942EA0522256A20F400402943D8603E
:101A8400DA6019601968002241F00101202519600B
:101A94001046626484F84150226384F8422070BD89
:101AA40042F400429A60D8E780F8402002F088FEB1
:101AB400B8E70120704700BF90F84130DBB2202B1B
:101AC40020D190F84020012A1CD010B402682424AC
:101AD40080F84140146824F001041460146824F46C
:101AE400805414601468214311601168002441F08B
:101AF4000101116080F8404080F8413020465DF8D3
:101B0400044B704702221046704700BF90F84130E2
:101B1400DBB2202B1FD190F84020012A1BD010B437
:101B24000268242480F84140146824F001041460FD
:101B3400146824F4706444EA0121116011680024DB
:101B440041F00101116080F8404080F841302046A6
:101B54005DF8044B7047022210467047002800F0DD
:101B6400D6812DE9F0430368DF0783B0044642D5EC
:101B7400C1494A6802F00C02042A00F066814A68EE
:101B840002F00C02082A00F059816368B3F5803F23
:101B940010D0002B00F09881B3F5A02F00F03A820A
:101BA400B54B1A6822F480321A601A6822F4802233
:101BB4001A6004E0B04A136843F480331360FEF7FC
:101BC40065FF4FF400380746AB4E012505E0FEF7EC
:101BD4005DFFC01B642800F2658198FAA8F332689F
:101BE40098FAA8F3B3FA83F303F01F0305FA03F397
:101BF4001342ECD023689E0759D41D072CD5626983
:101C0400002A00F0F480012292FAA2F19B4B9A4E32
:101C1400B1FA81F10B449B0015461A60FEF736FFBA
:101C24004FF00208074605E0FEF730FFC01B02280C
:101C340000F2388198FAA8F398FAA8F398FAA8F36E
:101C4400726A98FAA8F3B3FA83F303F01F0305FA50
:101C540003F31342E8D02368580773D5864BDA6937
:101C6400D10000F15681DA6942F08052DA61DB6911
:101C740003F080530193019B4FF00108804D2A68C3
:101C8400D20540F1FF80A368012B00F09881002B5E
:101C940000F04281052B784B1A6A00F0C88122F0CB
:101CA40001021A621A6A22F004021A628CE1724A70
:101CB400516811F00C0F00F08380516801F00C01A1
:101CC400082977D0E268002A00F05381012292FAB1
:101CD400A2F3B3FA83F303F1845303F584139B0053
:101CE40016461A60FEF7D2FE4FF002080746624D10
:101CF40005E0FEF7CBFEC01B022800F2D38098FA61
:101D0400A8F32A6898FAA8F3B3FA83F303F01F033D
:101D140006FA03F31342ECD02968F82292FAA2F2ED
:101D24002369B2FA82F221F0F80193400B432B604D
:101D3400236862E7B8F1000F04D04F4AD36923F057
:101D44008053D361A06988B34B4D6B6803F00C03D7
:101D5400082B00F0748102284FF0807300F0878113
:101D640093FAA3F3B3FA83F303F1845303F58413CF
:101D74009B0000221A60FEF789FE2C4607464FF0AE
:101D84000075012605E0FEF781FEC01B022800F263
:101D9400898095FAA5F3226895FAA5F3B3FA83F33B
:101DA40003F01F0306FA03F31342ECD1002003B03F
:101DB400BDE8F083526802F4C032B2F5004F81D11D
:101DC400022292FAA2F12C49086892FAA2F2B2FA1B
:101DD40082F202F01F02012101FA02F2024265D0EE
:101DE400E2688A4262D0012003B0BDE8F083012595
:101DF40095FAA5F1214B204EB1FA81F10B449B00D9
:101E04004FF002081A60FEF741FE074604E0FEF7B1
:101E14003DFEC01B022845D898FAA8F398FAA8F307
:101E240098FAA8F3726A98FAA8F3B3FA83F303F062
:101E34001F0305FA03F31342E9D10CE74A6802F4DD
:101E4400C032B2F5803F7FF4A0AE4FF4003292FA74
:101E5400A2F10949086892FAA2F2B2FA82F202F0F7
:101E64001F02012101FA02F202423FF4C4AE626889
:101E7400002A7FF4C0AEB6E7001002402081901023
:101E8400007000402A6842F480722A60FEF7FEFD6A
:101E940006462B68DB053FF5F6AEFEF7F7FD801B23
:101EA4006428F6D9032003B0BDE8F0839D4DF821E2
:101EB400286891FAA1F12269B1FA81F120F0F800C1
:101EC4008A4002432A6098E6964D2B6823F48033B7
:101ED4002B602B6823F480232B60FEF7D7FD4FF48F
:101EE40000380746012604E0FEF7D0FDC01B642835
:101EF400D8D898FAA8F32A6898FAA8F3B3FA83F31F
:101F040003F01F0306FA03F31342EDD172E6012036
:101F140070474FF00008B1E6824D2B6A23F00103AD
:101F24002B622B6A23F004032B62FEF7AFFD4FF004
:101F340002090746012614E099FAA9F36A6A99FA94
:101F4400A9F3B3FA83F303F01F0306FA03F313426E
:101F54003FF4F0AEFEF79AFD41F28833C01B98427D
:101F6400A0D899FAA9F399FAA9F3002BE4D02A6A24
:101F7400E5E7012595FAA5F3B3FA83F303F1845356
:101F840003F584139B004FF002081A60FEF77EFDF0
:101F9400644E074604E0FEF779FDC01B022881D891
:101FA40098FAA8F3326898FAA8F3B3FA83F303F023
:101FB4001F0305FA03F31342EDD123681DE6594AC2
:101FC400136A43F001031362FEF760FD4FF0020948
:101FD4000746544E012515E099FAA9F3726A99FA55
:101FE400A9F3B3FA83F303F01F0305FA03F31342CF
:101FF4007FF4A0AEFEF74AFD41F28833C01B98423D
:102004003FF650AF99FAA9F399FAA9F3002BE3D05C
:10201400326AE4E703F18043A3F53C331A6842F4DF
:1020240080221A601A6842F480321A60C7E542F0CE
:1020340004021A621A6A42F001021A62C4E7012811
:102044003FF4D2AE6A68E169EB6A02F4C0308842B8
:102054007FF4C9AE216A02F470128A427FF4C3AEDF
:10206400606A03F00F03181A18BF0120BCE693FA44
:10207400A3F3B3FA83F303F1845303F584139B00AE
:1020840000221A60FEF702FD4FF000780746012691
:1020940005E0FEF7FBFCC01B02283FF603AF98FAED
:1020A400A8F32A6898FAA8F3B3FA83F303F01F039A
:1020B40006FA03F31342ECD1EB6A626A23F00F03CE
:1020C4001343EB62D4E907136A680B4322F47612D4
:1020D40013436B604FF0807393FAA3F3B3FA83F363
:1020E40003F1845303F584139B004FF000741E60C6
:1020F400FEF7CCFC0B4E0746012505E0FEF7C6FCB7
:10210400C01B02283FF6CEAE94FAA4F3326894FAC8
:10211400A4F3B3FA83F303F01F0305FA03F31342A2
:10212400ECD043E60010024078B1644A136803F02F
:1021340007038B420BD2136823F007030B4313608E
:10214400136803F007038B4201D001207047036832
:102154002DE9F0419C0706D5594C8568626822F048
:10216400F0022A4362600D46D907044630D542681E
:10217400012A00F08E80022A0CBF4FF00073022364
:1021840093FAA3F14E49086893FAA3F3B3FA83F3DD
:1021940003F01F03012101FA03F3034228D0484E40
:1021A400736823F003031A437260FEF76FFC41F275
:1021B4008837804605E0FEF769FCA0EB0800B842CA
:1021C40079D87368626803F00C03B3EB820FF2D121
:1021D4003A4A136803F00703AB420CD9136823F09F
:1021E40007032B431360136803F00703AB4202D0C9
:1021F4000120BDE8F08123685A0706D53049E0681C
:102204004A6822F4E06202434A601B0707D52C4A5D
:102214002169536823F4605343EAC1035360284A95
:10222400536803F00C01082931D14FF4701494FA67
:10223400A4F40F20B4FA84F4D26A90FAA0F0214DE9
:10224400214903F47013E3402B44B0FA80F002F008
:102254000F02C2401B7CAA5CB1FBF2F103FB01F14B
:10226400174BF0225B6892FAA2F2B2FA82F203F000
:10227400F003D340154A1648D35C164A006821FA85
:1022840003F31360FEF7C2FB0020BDE8F0810E49A2
:10229400E6E74FF4003393FAA3F10949096893FA86
:1022A400A3F3B3FA83F303F01F0302FA03F30B421D
:1022B4007FF475AF9CE703209BE700BF002002403A
:1022C400001002406050000800127A008450000898
:1022D4000400002044000020124A536803F00C015B
:1022E400082901D01048704770B44FF4701494FA60
:1022F400A4F40F21B4FA84F4D26A91FAA1F10B4E3A
:10230400094D03F47013E3403344B1FA81F102F050
:102314000F02187CCA40B35CB5FBF3F370BC00FB3E
:1023240003F070470010024000127A006050000869
:10233400084B4FF4E0625B6892FAA2F2B2FA82F2BE
:1023440003F4E063D3400449044ACB5C1068D840EA
:10235400704700BF00100240945000084400002061
:10236400084B4FF460525B6892FAA2F2B2FA82F21E
:1023740003F46053D3400449044ACB5C1068D8404A
:10238400704700BF00100240945000084400002031
:102394002DE9F04304460068C60383B03ED5A04B44
:1023A400DA69D50040F1F3809E4D2A68D0054FF0DC
:1023B400000640F1FC809A4D61682A6A12F440726A
:1023C40020D001F4407393421CD0296A4FF4803327
:1023D40021F4407093FAA3F2934FB2FA82F23A4492
:1023E40092004FF0010CC2F800C093FAA3F3B3FAC1
:1023F40083F33B449B0000221A60CA07286200F161
:10240400EA806168864A136A23F440730B431362BB
:102414001EB1D36923F08053D3612068C30706D566
:102424007F4AA168136B23F003030B4313638707ED
:1024340006D57B4AE168136B23F440330B431363E3
:10244400460706D5764A2169136B23F440230B43D0
:102454001363850606D5724AE169136B23F01003F2
:102464000B431363810306D56D4A616D536823F4EE
:1024740080030B435360420606D5694A216A136BF5
:1024840023F020030B431363430306D5644A616AB4
:10249400136B23F040030B431363070706D5604A0D
:1024A4006169136B23F440130B431363C60606D50B
:1024B4005B4AA169136B23F440030B431363850543
:1024C40006D5574A216B536823F400030B4353602A
:1024D400010606D5524AA16AD36A23F4F8730B4362
:1024E400D362C20506D54E4AE16AD36A23F478530F
:1024F4000B43D362C30406D5494A616B136B23F4BF
:1025040080730B431363870406D5454A216C136B10
:1025140023F400730B431363C60206D5404AA16B30
:10252400136B23F080730B431363850206D53C4A77
:10253400E16B136B23F000730B431363410206D565
:10254400374A616C136B23F480630B4313630202F9
:1025540006D5334AA16C136B23F400630B43136356
:10256400C30106D52E4AE16C136B23F400530B43CD
:10257400136310F0007007D0294A216D136B23F404
:1025840000430B431363002003B0BDE8F083DA6912
:10259400244D42F08052DA61DB6903F080530193E9
:1025A400019B2A68D0054FF001063FF504AF2A6865
:1025B40042F480722A60FEF769FA07462B68D9054F
:1025C4003FF5F9AEFEF762FAC01B6428F6D9032082
:1025D40003B0BDE8F0836746FEF758FA4FF00209EE
:1025E400804615E099FAA9F36A6A99FAA9F3B3FA4D
:1025F40083F303F01F0307FA03F313427FF401AFDD
:10260400FEF744FA41F28833A0EB08009842DED882
:1026140099FAA9F399FAA9F3002BE3D02A6AE4E71B
:10262400001002400070004000819010002876D015
:10263400F8B590F83D30044603F0FF029BB32268DE
:10264400434EA569E0686168022384F83D30B242D4
:10265400136866D0B2F1804F43D0A6F59436B242E7
:1026640026D006F58066B24222D006F59636B242EE
:102674001ED006F5E056B24264D0A6F58056B242AA
:102684005ED0344EB2425BD006F58066B24257D07B
:1026940006F50066B24253D023F080032B43136047
:1026A400D062916217E080F83C2002F0C1F8C6E7DE
:1026B400A668294F23F070033343266923F440733B
:1026C400334323F080032B43BA421360D0629162F8
:1026D40015D16369136301235361002084F83D30ED
:1026E400F8BDA768266923F070033B4323F44073C5
:1026F400334323F080032B431360D0629162174B62
:102704009A42E6D003F580639A42E2D003F58063EF
:102714009A42DED003F500639A42DCD1D9E7012066
:102724007047A768266923F070033B4323F4407382
:10273400334323F080032B431360D0629162C8E7D4
:102744002669F3E7A66823F07003334399E700BFD3
:10275400002C01400044014000340140004001408D
:102764000368094AD96841F00101D96099680A40AF
:10277400062A06D0B2F5803F03D01A6842F001025F
:102784001A600020704700BF070001000368DA6880
:1027940022F00102DA60196A41F21112114208D1E1
:1027A400196A40F24442114203D11A6822F001022C
:1027B4001A600020704700BF704700BF002876D021
:1027C400F8B590F83D30044603F0FF029BB322684D
:1027D400434EA569E0686168022384F83D30B24243
:1027E400136866D0B2F1804F43D0A6F59436B24256
:1027F40026D006F58066B24222D006F59636B2425D
:102804001ED006F5E056B24264D0A6F58056B24218
:102814005ED0344EB2425BD006F58066B24257D0E9
:1028240006F50066B24253D023F080032B431360B5
:10283400D062916217E080F83C20FFF7BDFFC6E745
:10284400A668294F23F070033343266923F44073A9
:10285400334323F080032B43BA421360D062916266
:1028640015D16369136301235361002084F83D305B
:10287400F8BDA768266923F070033B4323F4407333
:10288400334323F080032B431360D0629162174BD0
:102894009A42E6D003F580639A42E2D003F580635E
:1028A4009A42DED003F500639A42DCD1D9E70120D5
:1028B4007047A768266923F070033B4323F44073F1
:1028C400334323F080032B431360D0629162C8E743
:1028D4002669F3E7A66823F07003334399E700BF42
:1028E400002C0140004401400034014000400140FC
:1028F400704700BF002876D0F8B590F83D30044604
:1029040003F0FF029BB32268434EA569E068616847
:10291400022384F83D30B242136866D0B2F1804F8E
:1029240043D0A6F59436B24226D006F58066B2426C
:1029340022D006F59636B2421ED006F5E056B242D3
:1029440064D0A6F58056B2425ED0344EB2425BD01B
:1029540006F58066B24257D006F50066B24253D0FF
:1029640023F080032B431360D062916217E080F858
:102974003C20FFF7BDFFC6E7A668294F23F070038C
:102984003343266923F44073334323F080032B43FA
:10299400BA421360D062916215D163691363012353
:1029A4005361002084F83D30F8BDA768266923F000
:1029B40070033B4323F44073334323F080032B43DE
:1029C4001360D0629162174B9A42E6D003F580639C
:1029D4009A42E2D003F580639A42DED003F50063A5
:1029E4009A42DCD1D9E701207047A768266923F011
:1029F40070033B4323F44073334323F080032B439E
:102A04001360D0629162C8E72669F3E7A66823F0F1
:102A14007003334399E700BF002C01400044014098
:102A24000034014000400140704700BF002800F01E
:102A34008480F8B590F83D3004460D4603F0FF025B
:102A4400002B35D02368494ED4F818C0E06861687B
:102A5400022284F83D20B3421A6870D0B3F1804F4B
:102A64004CD0A6F59436B34227D006F58066B3421F
:102A740023D006F59636B3421FD006F5E056B3428E
:102A84006FD0A6F58056B34269D0394EB34266D0B2
:102A940006F58066B34262D006F50066B3425ED0A6
:102AA40022F0800242EA0C021A60D862996218E0AD
:102AB40080F83C20FFF7B8FFC4E7A6682D4F22F04A
:102AC40070023243266922F44072324322F08002BB
:102AD40042EA0C02BB421A60D86299621DD1626953
:102AE4001A6301265E611A6822F008021A601A68E5
:102AF4002A431A60002084F83D60F8BDA76826695F
:102B040022F070023A4322F44072324322F08002EF
:102B14004CEA02021A60D8629962174A9342DED0E4
:102B240002F580629342DAD002F580629342D6D0F5
:102B340002F500629342D4D1D1E701207047A7681F
:102B4400266922F070023A4322F44072324322F0A2
:102B540080024CEA02021A60D8629962BFE72669D1
:102B6400F2E7A66822F0700232438EE7002C01409F
:102B740000440140003401400040014090F83C30E2
:102B8400012B00F09980F0B40223012480F83C402A
:102B940080F83D30D1E900570368D1E9026472B38B
:102BA400042A67D0082A1A6A00F0888022F4805226
:102BB4001A62D969D3F820C021F4407124032A038E
:102BC40041EA0721A4B202F4204221F470412CF41A
:102BD400204C42EA0C020C43DC611A62DA6922F4EA
:102BE4004062DA61DA6942EA0626DE6100230122E4
:102BF40080F83D2080F83C30F0BC184670471A6AD3
:102C0400DFF8F8C022F001021A62634599691A6A72
:102C140019D0B3F1804F16D0ACF5943C634512D073
:102C24000CF5806C63450ED00CF5963C63450AD0D8
:102C34000CF5406C634506D00CF5805C634502D00E
:102C440041F0010102E021F003013943240122F0A3
:102C54000A07E4B221F0F00105F00A023A432143E5
:102C640099611A629A6922F00C029A619A69164370
:102C74009E61BBE71A6A22F010021A629969D3F8BE
:102C840020C021F4407124032A0141EA0721A4B29F
:102C940002F0A00221F470412CF0A00C42EA0C02D4
:102CA400214399611A629A6922F440629A619A698D
:102CB40042EA06269E6199E70220704722F4807258
:102CC4001A62D969D3F820C021F0030124012A0231
:102CD4003943E4B202F4206221F0F0012CF4206CB8
:102CE40042EA0C022143D9611A62DA6922F00C0229
:102CF400DA61DA691643DE6178E700BF002C01402F
:102D040090F83C30012B00F0CA81F0B40223012476
:102D140080F83C4080F83D30142A36D8DFE812F0C1
:102D24008200350035003500CC0035003500350013
:102D34004701350035003500030135003500350005
:102D44007C013500350035003E00CE6824F0800457
:102D540044EA061424F04004D1E9056725F44065EB
:102D64003E4345EA86054E685D609A619E631C6237
:102D74009C690D6944F400649C61996921F4806143
:102D840099619A6942EA05229A610023012280F836
:102D94003D2080F83C30F0BC184670470368D1F8F9
:102DA40008C01D6A0F689A4E25F480151D621C6ABE
:102DB4005D685A6D22F0807224F4001422F4E0421B
:102DC400B34244EA0C5442EA072213D006F50066E3
:102DD400B3420FD006F54066B3420BD006F58066C9
:102DE400B34207D006F58066B34203D006F5006609
:102DF400B34204D14E6925F4802545EA86254E6800
:102E04005D605A65DE651C625C6D0D6944F40064A6
:102E14005C65596D21F4806159655A6D42EA052259
:102E24005A65B2E70368D1F808C01D6A0F68784E86
:102E340025F001051D621A6A5D689C6924F48034DA
:102E440022F0020224F07304B34242EA0C0244EA80
:102E5400070413D006F50066B3420FD006F54066AA
:102E6400B3420BD006F58066B34207D006F5806600
:102E7400B34203D006F50066B3420BD1CE6822F00C
:102E840008023243D1E9056725F440753E4322F038
:102E9400040235434E685D609C615E631A629C69FE
:102EA4000D6944F008049C61996921F00401996159
:102EB4009A692A439A6168E70368D1F808C01D6AD1
:102EC4000F68534E25F010051D621C6A5D689A69EF
:102ED40022F0807224F0200422F4E642B34244EA51
:102EE4000C1442EA07223FF430AF06F50066B34201
:102EF4003FF42BAF06F5E056B34200F0FA80A6F596
:102F04008056B3423FF428AF424EB3423FF424AF5D
:102F140006F58066B3423FF41FAF06F50066B34280
:102F24007FF421AF18E70368D1F808C01D6A0F6861
:102F3400374E25F480551D621C6A5D68DA6922F0FB
:102F4400807224F4005422F4E642B34244EA0C347E
:102F540042EA072213D006F50066B3420FD006F505
:102F64004066B3420BD006F58066B34207D006F53F
:102F74008066B34203D006F50066B34204D14E69BD
:102F840025F4804545EA86154E685D60DA611E6465
:102F94001C62DC690D6944F40064DC61D96921F4C4
:102FA4008061D961DA6942EA0522DA61EDE60368F3
:102FB400D1F808C01D6A0F68154E25F480751D628E
:102FC4001C6A5D68DA6922F4803224F4007422F009
:102FD4007302B34244EA0C2442EA070261D006F5C4
:102FE4000066B3425DD006F5E056B34279D0A6F54B
:102FF4008056B3425CD0074EB34259D006F5806682
:10300400B34255D006F50066B34258D150E000BF34
:10301400002C0140004401400368D1F808C01D6A37
:103024000F68384E25F480351D621C6A5D685A6D40
:1030340022F4803224F4003422F07002B34244EAD1
:103044000C4442EA070213D006F50066B3420FD0DF
:1030540006F54066B3420BD006F58066B34207D04E
:1030640006F58066B34203D006F50066B34204D188
:103074004E6925F4803545EA06254E685D605A653B
:103084009E651C625C6D0D6944F008045C65596DB5
:1030940021F0040159655A6D2A435A6575E60220E8
:1030A4007047CE6824F4006444EA062424F480645F
:1030B400D1E9056725F440553E4345EA06154E68B7
:1030C4005D60DA61DE631C62DC690D6944F008044A
:1030D400DC61D96921F00401D961DA692A43DA6132
:1030E40053E6CE6824F4006444EA062424F480649D
:1030F40081E7CE6824F0800444EA061424F04004F6
:1031040002E700BF002C014090F83C30012B5AD05C
:1031140002220368F0B480F83D209D680A684D4C93
:10312400402A04EA05044FF0010580F83C509C60F5
:1031340074D04AD9602A2DD056D9702A1AD0B2F543
:10314400005F0ED1D1E90152CC6899682A4342EA62
:10315400042221F47F410A439A609A6842F480422F
:103164009A600023012280F83D2080F83C30F0BCB6
:1031740018467047D1E90152CC6899682A4342EA5B
:10318400042221F47F410A439A609A6842F077024C
:103194009A60E6E71C6A4D68CE6824F010041C624D
:1031A40099691A6A21F4704122F0A00242EA0512D8
:1031B40041EA063199611A629A6822F0700242F07B
:1031C40067029A60CDE702207047102A04D03DD9E7
:1031D400202A01D0302AC4D1996842F0070221F094
:1031E40070010A439A60BCE7502ABAD11D6A1E6A6C
:1031F4004C68CF6826F001061E629A6925F00A0120
:1032040022F0F00242EA071221439A6119629A6895
:1032140022F0700242F057029A60A2E71D6A1E6A09
:103224004C68CF6826F001061E629A6925F00A01EF
:1032340022F0F00242EA071221439A6119629A6865
:1032440022F0700242F047029A608AE7002AC3D053
:1032540087E700BF8800FEFF0C2914D8DFE801F0DF
:10326400101313130D1313130A1313130700036816
:10327400186C70470368D86B70470368986B704785
:103284000368586B70470020704700BF704700BF49
:10329400704700BF704700BF03681A69910710B5F3
:1032A400044602D5DA68920768D41A69520702D52F
:1032B400DA6850074FD41A69110702D5DA68120781
:1032C40037D41A69D00602D5DA68D1061ED41A6931
:1032D400D20702D5DA68D00769D41A69110602D573
:1032E400DA6812066BD41A69D00502D5DA681106B9
:1032F4006DD41A69520602D5DA6850066FD41A6979
:10330400910602D5DA68920649D410BD6FF0100216
:103314001A61DB69082213F4407F227720466FD1BB
:10332400FFF7B4FF2046FFF7B3FF0022236822779C
:10333400CDE76FF008021A61DB6904229B0722774C
:1033440020465AD1FFF7A2FF2046FFF7A1FF002233
:1033540023682277B5E76FF004021A619B690222A1
:1033640013F4407F2277204644D1FFF78FFF204695
:10337400FFF78EFF0022236822779CE76FF002029A
:103384001A619B6901229907027730D1FFF77EFF0A
:103394002046FFF77DFF00222368227785E76FF040
:1033A400200220461A61BDE8104000F0CBB86FF04F
:1033B40001021A61204600F023FF23688DE76FF0B5
:1033C40080021A61204600F0BFF823688BE76FF48F
:1033D40080721A61204600F0B9F8236889E76FF01B
:1033E40040021A612046FFF755FF236887E700F083
:1033F400E3FFD0E700F0E0FFBCE700F0DDFFA6E765
:1034040000F0DAFF91E700BF90F83C30012B4BD07D
:10341400F0B40368254C0E68022280F83D20012593
:10342400A3425A6880F83C509D6834D004F5006487
:10343400A3422BD004F5E054A34227D022F070021B
:103444003243B3F1804F5A6012D0194A93420FD0DD
:1034540002F5806293420BD002F59632934207D074
:1034640002F54062934203D002F58052934204D1A4
:103474008A6825F0800515439D600023012280F8A9
:103484003D2080F83C30F0BC184670474C6822F46C
:1034940070022243D2E74F6822F470043C4324F0C4
:1034A400700434435C60E3E702207047002C014061
:1034B4000004004090F83C30012B3FD030B4D1E9F7
:1034C4000253024623F44073D1E900042B4323F44E
:1034D4008063234323F40063D1E90454034323F4B6
:1034E40080532B4323F40053886A8D69234323F4C8
:1034F40080430343124C106823F47023A04243EA30
:10350400054307D004F50064A04203D004F5E05459
:10351400A0420CD14D6A23F47003D1E9074143EA78
:10352400055323F08073234323F000730B430021DE
:10353400436430BC084682F83C1070470220704750
:10354400002C0140704700BF704700BF704700BFA8
:10355400436ADA0710B406D50168846A4A6822F41B
:10356400003222434A609C0706D50168C46A4A684F
:1035740022F4803222434A60590706D50168046B5D
:103584004A6822F4802222434A601A0706D5016859
:10359400446B4A6822F4004222434A60DC0606D5A2
:1035A4000168846B8A6822F4805222438A609906F7
:1035B40006D50168C46B8A6822F4005222438A60EB
:1035C4005A0609D50168046C4A6822F48012224321
:1035D400B4F5801F4A600BD01B0606D50268816CC7
:1035E400536823F400230B4353605DF8044B704786
:1035F4004A68446C22F4C00222434A60ECE700BFEC
:10360400002840D0F8B5436F0446002B36D0236819
:1036140027696669AF49242262671868A26820F0A6
:10362400010018601D68E0693A43324329400243AF
:103634000A431A605968E568A269266A21F4405170
:10364400294359609968A44D21F4306132430A43F7
:10365400AB429A6019D0A14A934237D0A04A934210
:1036640000F0E6809F4A934265D09F4A934200F05F
:1036740005810023C4E918330120F8BD80F87030B7
:1036840001F06AFAC3E701207047984B984A1B6B14
:1036940003F00303B0F5004FD35C00F02B81082B3B
:1036A400E7D801A252F823F06F3800085D3700080C
:1036B400A7380008773600089538000877360008E0
:1036C400773600087736000853380008874B1B6BA1
:1036D40003F44033B3F5803F00F0D78040F2BF805D
:1036E400B3F5003F00F0AF80B3F5403FC1D1B0F572
:1036F400004F40F0D6806268530803F5740303F565
:103704001053B3FBF2F39BB2A3F110014FF6EF7227
:103714009142AED823F00F01C3F3420223680A4357
:10372400DA60626A0021C4E9181162B32046FFF727
:103734000FFF236827E06D4B1B6B03F44013B3F5B5
:10374400801F00F0A28040F28A80B3F5001F7AD077
:10375400B3F5401FCBD08CE7FEF702FE636800EBA5
:103764005302B2FBF3F292B2A2F110014FF6EF73DF
:1037740099423FF67EAF2368DA60626A0021C4E9A9
:103784001811002AD2D15A6822F490425A609A68D9
:1037940022F02A029A601A68002142F001021A609B
:1037A400E167FDF773F923681A681107064609D41F
:1037B4001A6850072AD420230020636784F8700015
:1037C400A367F8BDDD6915F40015F1D1FDF75EF9C5
:1037D4002368801BB0F1007F1A686CD25207F1D5C0
:1037E400DA691705EED54FF400621A621A6822F4FA
:1037F400D0721A609968202221F001019960032097
:10380400626784F87050A267E267F8BDDD6915F459
:103814008005D0D1FDF73AF92368801BB0F1007F11
:103824001A6848D25107F1D5DA691205EED5DAE7FC
:103834002E4B1B6B03F44023B3F5802F25D00ED9F8
:10384400B3F5002F77D1B0F5004F00F086806368A0
:103854005A0802F50042B2FBF3F292B284E7002B5D
:103864007FF407AFB0F5004F7FD0FEF761FD6368CA
:1038740000EB5302B2FBF3F292B275E71B4B1B6BE6
:1038840003F44003B3F5800F4CD1B0F5004F57D08B
:10389400FEF722FD636800EB5302B2FBF3F292B22F
:1038A40062E763685A0802F5F40202F59052B2FB2B
:1038B400F3F292B258E722F4D0721A609A68202187
:1038C40022F001029A600320616784F87050A167B6
:1038D400F8BD00BFF369FFEF003801400044004029
:1038E40000480040004C00400050004000100240DE
:1038F40080500008082B3FF6BCAE01A252F823F01A
:103904006F39000859390008FB360008773600087B
:1039140045390008773600087736000877360008FE
:103924005F3900089BD9B3F5000F8CD0B3F5400F75
:103934003FF4DDAE9DE6B3F5402F3FF4D8AE98E6F4
:10394400FEF7CAFC6268530803EB4003B3FBF2F3CF
:103954009BB2D9E6FEF704FDF4E76268530803F569
:103964008033B3FBF2F39BB2CEE6FEF7E1FCE9E76A
:10397400304B314AD3ED017AD3ED026A92ED057AE8
:1039840077EEE67AF4EEC77AF1EE10FA51D8D3ED79
:10399400017AD3ED026A92ED057A77EEA67AF4EE17
:1039A400C77AF1EE10FA44DB2449D3ED037A91EDA2
:1039B400007A77EEC77AC2ED067AD2ED077A92EDF5
:1039C400067A77EE877AC2ED077A93ED046AD2ED30
:1039D400076AD2ED067A93ED057AE6EE267A67EE6B
:1039E400877AC3ED067A93ED067AD3ED077AB4EEBF
:1039F400E77AF1EE10FA09DDD9699961D2ED077A17
:103A040092ED067A77EEC77AC2ED077A93ED067ADD
:103A1400D3ED087AB4EEE77AF1EE10FA09D5196A13
:103A24009961D2ED077A92ED067A77EE877AC2ED44
:103A3400077A7047080000209C0400208C0B0020AB
:103A440030B50021A7B00C46242207A801F022FAC1
:103A5400214610A85822CDE90144CDE90344059438
:103A640001F018FA0123022510214FF400420993B2
:103A740006A84FF4E013CDE90D230A9106950C95A1
:103A8400FEF76CF829460F224FF4806301A80192D7
:103A94000493CDE902540594FEF746FB0A491394B6
:103AA4004FF480724FF4005310A817941D94CDE97D
:103AB400214423942094CDE91E441091CDE91A2386
:103AC400FEF766FC27B030BDA231F0012DE9804835
:103AD400A1B00024CB4B0193FCF7BAFFFFF7B0FF72
:103AE400CDE91544CDE91744C74E19947269C74806
:103AF400DFF84483DFF844A3C54FDFF84493DFF8CD
:103B040044B342F400227261726902F40022029208
:103B1400029A726942F480027261726902F480024C
:103B24000392039A726942F400327261726902F478
:103B340000320492049A726942F4802272617269BA
:103B440002F480220592059A726942F4801272612D
:103B5400726902F48012069240F2DE712246069DDA
:103B6400FDF73EFF224640F2E1114FF09040FDF791
:103B740037FF22460421A748FDF732FF2246F021F1
:103B8400A548FDF72DFFA54AA0484FF40053CDE901
:103B9400153215A9022301251793FDF72FFE40F2D4
:103BA400DE7215A99948CDE91525CDE91744FDF72D
:103BB40025FE40F2E11215A94FF090401592CDE98F
:103BC40016541894FDF71AFE022315A98F4817936B
:103BD400202315931694FDF711FE032215A98E4890
:103BE4001595CDE91624FDF709FE022315A98A4887
:103BF4001793042315931694FDF700FE4FF4E05039
:103C0400874A1590022315A9834816921793FDF746
:103C1400F5FD042315A97F48CDE91535CDE91744F1
:103C2400FDF7ECFDF02215A97B481592CDE9165459
:103C34001894FDF7E3FD214622462820FDF7ECFC0D
:103C44002820FDF71FFD4FF0A04204234046C8F88A
:103C54000020C8F81430C8E90A54C8F81C50C8E950
:103C64000144C8F8104088F8194088F82040C8F882
:103C74000C4088F8304088F81840C8F834400E9456
:103C8400CDE91544CDE91744CDE91944CDE90F44F4
:103C9400FCF708FF0EA940460E94FDF71DFC15A97C
:103CA40002234046CDE91535CDE91744CDE9194441
:103CB400FDF768FA5B4ACAF8002004235046CAF8A4
:103CC4001430CAE90A54CAF81C50CAE90144CAF8B3
:103CD40010408AF819408AF82040CAF80C408AF843
:103CE40030408AF81840CAF834401594CDE9164497
:103CF400CDE918441A94FCF7D5FE15A95046CDE930
:103D04001555CDE91744CDE91944FDF73BFA464A68
:103D14003A60042338467B61C7E90A54FD61C7E968
:103D240001443C617C7687F82040FC6087F8304091
:103D34003C767C630E94CDE90F44CDE91544CDE97E
:103D44001744CDE91944FCF7ADFE0EA938460E948C
:103D5400FDF7C2FB15A93846CDE91555CDE9174441
:103D6400CDE91944FDF70EFA0423304AC9F814309A
:103D74004846C9F8105089F81950C9E90A54C9F8D5
:103D84001C50C9F80020C9E9014489F82040C9F849
:103D94000C4089F8304089F81840C9F834400527A8
:103DA4001594CDE91644CDE918441A94FCF77AFE2B
:103DB4000722484615A9169515971792CDE9184478
:103DC4001A94FDF7DFF9019B194A1A499C601846B9
:103DD400C3E90012C3E90354C3E90544C3E9074432
:103DE400FDF716FE019B21461846FDF765FE019B73
:103DF40021461846FDF78AFE2C22214615A8CDE956
:103E0400134421E0200A002000100240000800486A
:103E1400900B0020000C0048000400480000311002
:103E24000000111000010050000400500005005073
:103E34000E090020005400403C0B0020E80500203F
:103E4400340F0020280E0020CDE91144CDE90F44A1
:103E54000E940794CDE90A44CDE90C44CDE9084415
:103E640001F018F8CA4BCBF80030584640F60F63FF
:103E7400CBF80C304FF4805ACBE90144CBE904442D
:103E8400CBF81840FEF7D2FB0AA95846CDF828A073
:103E9400FFF73AF95846FEF791FC07A95846CDE9D1
:103EA40007440994FFF7B0FA602322460EA9584646
:103EB4000E93CDE90F44CDE91144CDE91344FEF747
:103EC4001FFF4FF000734FF4005215A95846CDE977
:103ED4001A241D93CDE91544CDE9174419941C9473
:103EE400CDE91E44FFF7E6FA584600F0EBFDA94879
:103EF40010942322632307464FF08041C0E9001247
:103F0400C360CDE91544CDE91744CDE90E4484607E
:103F140004618461FEF78AFB15A93846CDF854A0E4
:103F2400FFF7F2F838460821FEF780FD0EA938465F
:103F34000E941094FFF768FA9748984B984F15948D
:103F44004FF0DB084FF6FE79C0E90038CDE916449E
:103F54001894CDE90E441094846004618461C0F81F
:103F64000C90FEF763FB15A98B48CDF854A0FFF71E
:103F7400CBF80EA988480E941094FFF745FA894BA4
:103F84003B603846C7E90184C7E90394BC610E94D9
:103F9400CDE90F441194CDE90A440C94CDE91544BC
:103FA400CDE91744FEF742FB0EA93846CDF838A0F8
:103FB400FFF7AAF83846FEF79DFC0AA938460A948A
:103FC4000C94FFF721FA0A23224615A93846CDE9B5
:103FD4001545CDE91743744DDFF8FCB1DFF8FC81DA
:103FE400FEF7CCFD02230422384615A9CDE915338A
:103FF4001894FEF7C3FD21462C2215A848F69F47C6
:10400400CDE90A44CDE90C44CDE907440994CDE94E
:104014000E44CDE91044CDE91244149400F03AFF63
:10402400624A2A60C7232846EB60AC60C5E90444B1
:10403400AC616F60FEF7FAFA0AA92846CDF828A009
:10404400FFF762F82846FEF7B9FB07A9284607944C
:104054000994FFF7D9F9224660230EA92846CDE931
:104064000E34CDE91044CDE912441494FEF748FE11
:1040740015A94FF4005328461A93CDE91544CDE908
:10408400174419941B941F94FFF714FA284600F060
:1040940019FD474B474A1A6018465C60C3E902445D
:1040A400C3E904449C61FEF7C1FA434B434D9C6051
:1040B4004FF416510C221846C3E900515A61C3E962
:1040C4000344C3E90644C3E90844FFF799FA3C4AA8
:1040D400CBF8002044F61F635846CBF80C301594F7
:1040E400CDE91644CBE90174CBF81840FEF79EFAEB
:1040F400202315A9584615931794FFF785F93149DC
:10410400314D159409224FF47A734046C8E90012E0
:10411400C8F80C30CDE91644C8F80840C8F818406F
:10412400FEF784FA15A9404615941794FFF76CF925
:10413400264A159447232846C5E90023CDE91644A9
:104144001894CDE90E441094C5E90249C5E9044424
:10415400AC61FEF76BFA15A92846CDF854A0FEF71A
:10416400D3FF0EA92846CDE90E441094FFF74CF96D
:10417400174B184A1A6018465C60C3E90244C3E945
:1041840004449C61FEF752FA736943F0020327E08A
:10419400002C0140700E0020F80A002000040040AA
:1041A400A8050020000800406C0A002000400140DF
:1041B400840F002000440140B40E0020004400405D
:1041C4000014004000100040680500200034014045
:1041D400AC0A002000480140C40F0020E80D002074
:1041E4007361736903F00203159339202246214653
:1041F400159BFDF711FA3920FDF744FAFEE700BFDD
:1042040070B55E4B98422DED028B044641D05C4B59
:104214009C4202D0BDEC028B70BD5A4DEB68002B62
:10422400F8D16A68132AF5DDA96B574A2068013171
:10423400A963AE6B82FB06129119F217C2EB21221D
:104244004FF4857101FB1262AA634362AB6B002BCE
:1042540078D0AB6B0E2B45DC4C4B93ED007ADFED45
:104264004C7AB4EEE77AF1EE10FA08D893ED007ABE
:10427400DFED487AB4EEE77AF1EE10FA30DA002294
:10428400BDEC028B01214FF09040BDE87040FDF77A
:10429400A7BB3C4B5A6B01325A635D6B6B4203F014
:1042A4007F0305F07F0558BF5D42A5B13A4BDFEDB2
:1042B4003B6A3B493B4A91ED067A126803EB85055C
:1042C400D5ED007A67EEA67A67EE877AFCEEE77A98
:1042D400C2ED0D7A9BE702213348FDF787FBE5E742
:1042E4000122CDE7AB6B2E48304990ED0A7A304A73
:1042F4000F3B07EE903AF8EEE77A77EEC77AC1ED16
:10430400007AD5ED087A90ED0B7AF8EEE77A77EE3D
:10431400C77AC2ED007A91ED007AD1ED007A92ED80
:10432400000AD2ED006A20EE260AA7EE270AB5EEAF
:10433400400AF1EE10FAB1EEC08A1BD4134B83EDA0
:10434400008A8AE72046FEF721FA2A6A19490132CF
:104354002A622A6A81FB0231D317C3EB2113FA21A3
:1043640001FB13232B622B6A002B7FF472AF012312
:10437400EB606EE700F008FDE0E700BFE80D002009
:10438400F80A00209C040020993D60F6380B0020B8
:104394000000FA4200009642E00B002000F0604565
:1043A40008000020280E002000080048E00D00202E
:1043B400680E0020D34D6210734A904200D07047BB
:1043C40070B5067F012E044623D0022E00D070BDA6
:1043D4006E4CE36B012B29D0022BF8D104216A48DF
:1043E400FEF73AFF07EE900AF8EE677ADFED686AA7
:1043F400C4ED167AD4ED167A94ED107A654877EE0A
:10440400C77A87EEA67A84ED1A7ABDE87040FEF783
:10441400A7B95E4DEB6B012B00F08280022B1CD000
:10442400002BD4D102685362EE6370BD0421564858
:10443400FEF712FF07EE900AF8EE677A9FED547AC2
:10444400C4ED117AD4ED116A5248C6EE877AC4EDF0
:10445400197ABDE87040FEF783B90021FEF7FCFE2F
:1044640007EE900AF8EE677A4B4BC5ED157AD3ED5B
:104474000C6A95ED157A494B9FED496A4549C6EE9C
:10448400877A0A68C5ED057A95ED167A95ED104A96
:10449400D5ED115AD5ED107AD5ED114AD5ED156A41
:1044A40095ED165A37EE447A76EEC56A77EEE47ADD
:1044B40037EE257A77EEA67AC7EE276AC3ED006A4F
:1044C400D5ED157A95ED167A77EEC77AC5ED177A9C
:1044D400D5ED157A95ED167A77EEC77A87EE867A5A
:1044E40085ED147AD5ED137AFCEEE77A17EE903A5F
:1044F4009BB2D362D5ED137AAE70FCEEE77A85F801
:1045040060606A6817EE903A01329BB2CB606A60D1
:10451400FFF72EFA236800225A62EE63267F54E7DF
:104524000021FEF799FE07EE900AF8EE677ADFEDB8
:104534001C6AC5ED107AD5ED107A95ED117A154AFD
:1045440077EEC77A1068C5ED127AD5ED107A95ED3D
:10455400117A77EEC77A022187EEA67A85ED137A6F
:10456400D5ED147AFCEEE77A17EE903A9BB2C3626B
:10457400D5ED147AAE70FCEEE77A267FE96317EE88
:10458400903A9BB2D36020E7A80500209C04002049
:1045940000007A44F80A0020080000208C0B002058
:1045A40000008C43B0F5005F02D1024B01229A62F5
:1045B400704700BF9C040020704700BF0A4B9A69F3
:1045C40042F001029A619A6982B002F001020092FB
:1045D400009ADA6942F08052DA61DB6903F08053B1
:1045E4000193019B02B070470010024070B502684D
:1045F4008EB00023B2F1A04FCDE90933CDE90B33DE
:104604000D932DD0664B9A4207D0664B9A4253D0F5
:10461400654B9A427CD00EB070BD644A1368013376
:10462400012B13603DD0624B5A6942F400325A6147
:104634005B6903F400330493049C09A91022032347
:104644004FF09040CDE90923FDF7D8F80022114638
:104654001220FCF7E1FF1220FDF714F80EB070BD34
:10466400524A13680133012B13600FD0504B5A691F
:1046740042F400325A615B6903F40033029309A9DE
:10468400022203234FF09040029CDBE7484B5A6917
:1046940042F080525A615B6903F080530193019B9D
:1046A400E4E7434B5A6942F080525A615B6903F074
:1046B40080530393039BB6E73C4A53680133012BB1
:1046C400536009D13A4B5A6942F000525A615B690E
:1046D40003F000530593059B354B36485A6942F461
:1046E40080225A615B6903F48023069309A903239A
:1046F4000222CDE90923069CFDF780F80022114629
:104704002F20FCF789FF2F20FCF7BCFF0EB070BDF3
:10471400264A53680133012B0446536009D1244BC4
:104724005A6942F000525A615B6903F000530793DF
:10473400079B1F4B204D5A691E4842F480225A6140
:104744005B6903F4802308934FF40042032309A90F
:10475400CDE90923089EFDF751F8184B2B60802002
:104764004FF400734FF400612022E8602B61284667
:104774000023C5E90512C5E90133EB61FCF7AAFF83
:1047840058B900221146A5633D206C62FCF744FF32
:104794003D20FCF777FF0EB070BDFFF70DFFF0E78B
:1047A40000010050000400500005005010050020D6
:1047B4000010024000040048240500201C040240AC
:1047C40070B50168174A88B000239142CDE90333DC
:1047D400CDE90533079301D008B070BD124C1348DE
:1047E400636943F480236361636903F48023019361
:1047F4004FF440721223039204930322042303A967
:1048040001250793019ECDE90552FCF7F7FFE36903
:1048140043F40013E361E36903F400130293029B7E
:1048240008B070BD0054004000100240000400486D
:1048340070B50368994A90B000249342CDE90B44C3
:10484400CDE90D440F9435D0B3F1804F5ED0944A36
:10485400934270D0934A934200F08180924A9342EB
:1048640015D0924A934200F0A280914A934200F0FC
:10487400B180904A934200F0EB808F4A934200F05B
:10488400FA808E4A934200F0D08010B070BD8C4BF9
:10489400DA6942F01002DA61DB69012203F01003E5
:1048A400059311463620059BFCF7B6FE3620FCF72F
:1048B400E9FEEAE7824B9A6942F400629A619B69D5
:1048C40003F400632246214600931820009BFCF762
:1048D400A3FE1820FCF7D6FE224621461920FCF739
:1048E4009BFE1920FCF7CEFE224621461A20FCF737
:1048F40093FE1A20FCF7C6FE224621461B20FCF735
:104904008BFE1B20FCF7BEFE10B070BD03F5043314
:104914002146DA6942F00102DA61DB6903F001033E
:10492400019322461C20019BFCF776FE1C20FCF719
:10493400A9FE10B070BD624BDA6942F00202DA617E
:10494400DB6903F002030293224621461D20029BE9
:10495400FCF762FE1D20FCF795FE10B070BD584BAD
:10496400DA6942F00402DA61DA6902F004020392BD
:10497400039A5A6942F400325A615B6903F40033C2
:1049840004930BA90A2302224FF400654FF09040D0
:10499400CDE90B520F93049EFCF730FF22462146CB
:1049A4001E20FCF739FE1E20FCF76CFE6DE7444B1D
:1049B400DA6942F02002DA61DB6903F0200306932E
:1049C400224621463720069BFCF726FE3720FCF7BB
:1049D40059FE5AE73A4B9A6942F400529A619B692C
:1049E40003F400532246214607932B20079BFCF730
:1049F40013FE2B20FCF746FE224621462C20FCF712
:104A04000BFE2C20FCF73EFE224621462D20FCF70F
:104A140003FE2D20FCF736FE224621462E20FCF70D
:104A2400FBFD2E20FCF72EFE2FE7254B9A6942F45E
:104A340080229A619B69002203F480230A93114621
:104A44001A200A9BFCF7E8FD1A20FCF71BFE1CE762
:104A54001B4B9A6942F480329A619B6903F4803358
:104A64000893224621461820089BFCF7D5FD182000
:104A7400FCF708FE09E7124B9A6942F400329A6186
:104A84009B6903F400330993224621461920099BAC
:104A9400FCF7C2FD1920FCF7F5FDF6E6002C0140F9
:104AA40000040040000800400010004000140040D2
:104AB40000340140004001400044014000480140EE
:104AC4000010024030B502681F4989B000238A42B1
:104AD400CDE90333CDE9053307931CD01B4B9A4230
:104AE40001D009B030BD03F5504319485A6942F466
:104AF40080225A615B6903F480230293022201231A
:104B040003A94FF48044029D0793CDE90342FCF7C7
:104B140075FE09B030BD03F1804303F504330D483D
:104B24005A6942F400225A615B6903F40023019339
:104B34000122022303A9019C0793CDE90323FCF777
:104B44005DFE09B030BD00BF002C014000400140B3
:104B5400000400480008004830B50168174A89B0CD
:104B640000239142CDE90333CDE90533079301D006
:104B740009B030BD03F1804303F5043303A9DA69B6
:104B840042F40032DA61DA6902F400320192019AE5
:104B94005A6942F400325A615B6903F400330293A8
:104BA400022207230C244FF09040029D0793CDE985
:104BB4000342FCF723FE09B030BD00BF00440040AF
:104BC400704700BFFEE700BFFEE700BFFEE700BF7F
:104BD400FEE700BF704700BF704700BF704700BFCB
:104BE400FBF748BF08B50448FCF7F6F80348BDE8EE
:104BF4000840FCF7F1B800BF3C0B0020E80500209A
:104C040008B50448FEF748FB0348BDE80840FEF732
:104C140043BB00BF280E00206C0A002008B50448DE
:104C2400FEF73AFB0348BDE80840FEF735BB00BF7A
:104C3400280E0020840F002008B50448FEF72CFB42
:104C44000348BDE80840FEF727BB00BF280E00203C
:104C5400AC0A00200148FEF71FBB00BF280E00204D
:104C64000148FEF719BB00BF700E00200148FEF793
:104C740013BB00BFF80A00200148FEF70DBB00BFBC
:104C8400A805002008B54FF48060FCF7B5FE4FF48A
:104C94000060FCF7B1FE4FF48050FCF7ADFE4FF41A
:104CA4000050BDE80840FCF7A7BE00BF0148FEF76E
:104CB400F3BA00BF680500200148FEF7EDBA00BF53
:104CC400680500200148FEF7E7BA00BF6805002028
:104CD4000148FEF7E1BA00BF680500200148FCF76F
:104CE4007BB800BF900B00200148FEF7D5BA00BF87
:104CF400E80D00200148FEF7CFBA00BFC40F002022
:104D04000148FCF72DBD00BF240500200148FCF735
:104D140063B800BF340F0020054BD3F888204FF050
:104D2400006142F47002C3F888209960704700BFA4
:104D340000ED00E0DFF834D0002103E00C4B5B58B9
:104D4400435004310B480C4B42189A42F6D30B4A99
:104D540002E0002342F8043B094B9A42F9D3FFF7DF
:104D6400DBFF00F073F8FEF7B1FEFEE70000012060
:104D7400B4500008000000207C04002080040020BF
:104D84002C100020FEE7000010B52DED028B8AB038
:104D9400B0EE408A00F04EF8244B93F90040631CB7
:104DA40009D0B4EE488AF1EE10FA04D6B5EEC08A02
:104DB400F1EE10FA03D40AB0BDEC028B10BD01234E
:104DC4001B4A009318EE100A002301920893FBF784
:104DD40063FB0022CDE90401CDE902010023BCB14B
:104DE40010461946FBF7DAFC022CCDE9060111D175
:104DF40000F026F821230360089B8BB9DDE9060146
:104E0400FBF7B4FD00EE100A0AB0BDEC028B10BD36
:104E1400CDE90623684600F011F80028ECD1E7E755
:104E240000F00EF8089B0360E8E700BF480000208C
:104E34009C500008B1EEC00A704700BF00207047C4
:104E4400014B1868704700BF4C00002070B50D4E30
:104E54000D4D761BB61006D00024013455F8043BE2
:104E64009847A642F9D1094E094D761B00F0EAF89D
:104E7400B61006D00024013455F8043B9847A642E6
:104E8400F9D170BDA8500008A8500008B05000081F
:104E9400A8500008F0B4860743D0541E002A3ED020
:104EA400CAB2034602E014F1FF3438D303F8012BED
:104EB4009D07F8D1032C2BD9CDB245EA05250F2C3B
:104EC40045EA054516D9A4F110073F0903F1200668
:104ED40006EB071603F1100242E9045542E90255B4
:104EE4001032B242F8D104F00F040137032C03EB63
:104EF40007130DD91E462246043A032A46F8045BDA
:104F0400FAD8221F22F003020432134404F00304EB
:104F14002CB1C9B21C4403F8011B9C42FBD1F0BC68
:104F2400704714460346C5E7024B13B1024800F02C
:104F340005B87047000000004D4F000800230146EB
:104F44001A46184600F01EB838B50A4C0A4D641BC0
:104F5400A4100AD004F18043013B05EB8305013C16
:104F640055F804399847002CF9D1BDE8384000F0D1
:104F74006FB800BFB4500008B0500008704700BFBD
:104F8400704700BF2DE9F8432B4D06462868984624
:104F94000F469146FFF7F2FF284B1C68D4F84831BE
:104FA400002B3DD05A681F2A0DDC02F1010C16BB00
:104FB4000232C3F804C0286843F82270FFF7E0FF08
:104FC4000020BDE8F8831E4B7BB34FF4C870AFF3E9
:104FD4000080034648B3D4F848210021C0E90021E9
:104FE4004FF0010CC4F848010A46C0F88811C0F813
:104FF4008C11002EDCD003EB82010124C1F88890CF
:10500400D3F8880194402043022EC3F88801C1F8E4
:105014000881CDD1D3F88C110C43C3F88C41C7E778
:1050240004F5A673C4F84831BCE72868FFF7A8FF65
:105034004FF0FF30C5E700BF78040020A4500008FB
:1050440000000000F8B500BFF8BC08BC9E467047DD
:0C505400F8B500BFF8BC08BC9E467047D1
:105060000102030405060708090A0B0C0D0E0F10B8
:1050700002030405060708090A0B0C0D0E0F101099
:105080000104080200000000000000000102030407
:10509000060708090000000001020304737172741E
:0850A000660000005000002032
:0850A8002D4F0008B9010008BA
:0450B000950100085E
:1050B4000100000010000000F90F4940A4700541F0
:1050C4000000003F9A99193F8FC2753DCDCC4C3FEB
:1050D4000000803E0000803ECDCCCC3D320000007C
:1050E4000000F9420000F94217CD9F48920A064099
:1050F4000100000000127A000100000050000020AE
:10510400000000003C030020A40300200C04002045
:10511400000000000000000000000000000000008B
:10512400000000000000000000000000000000007B
:10513400000000000000000000000000000000006B
:10514400000000000000000000000000000000005B
:10515400000000000000000000000000000000004B
:10516400000000000000000000000000000000003B
:10517400000000000000000000000000000000002B
:10518400000000000000000000000000000000001B
:10519400000000000000000000000000000000000B
:1051A40000000000000000000100000000000000FA
:1051B4000E33CDAB34126DE6ECDE05000B000000BF
:1051C40000000000000000000000000000000000DB
:1051D40000000000000000000000000000000000CB
:1051E40000000000000000000000000000000000BB
:1051F40000000000000000000000000000000000AB
:0C55240000000000000000000810002043
:0400000508004D3969
:00000001FF
